S01900005049504F5F6F7074696D697A6174696F6E2E737265634D
S113000045C0000058C0000056C0000054C00000A5
S113001052C0000050C000004EC000004CC00000A0
S11300204AC0000048C0000046C0000044C00000B0
S113003042C0000040C000003EC000003CC00000C0
S11300403AC0000038C0000036C0000034C00000D0
S113005032C0000030C000002EC000002CC00000E0
S11300602AC0000028C0000026C0000024C00000F0
S113007022C0000020C000001EC000001CC0000000
S11300801AC0000018C0000016C0000011241FBED2
S1130090CFEFD0E1DEBFCDBF11E0A0E0B1E0E0EBF7
S11300A0F8E000E00BBF02C007900D92A034B10746
S11300B0D9F7F7D3FBC3A4CFFF920F931F93CF932A
S11300C0DF93EC01DB01FA012D913D914D915D919E
S11300D06D917D918D919D91AF93BF93E8591DE0F2
S11300E00190202501903025019040250190502554
S11300F00190602501907025019080250190902544
S11301008894331F311D8894441F411D441F411D91
S1130110441F411D441F411D889450FB579557F9B6
S113012050FB579557F950FB579557F98894661F1C
S1130130611D661F611D8894771F711D771F711DD6
S1130140771F711D889480FB879587F9889490FBAD
S1130150979597F990FB979597F9F92E922F232F5E
S11301603F2DF92E082FA72FB52F5A2B65275B2F6C
S1130170BA2FA02B5A27AB2F0627F526B02F0F2115
S1130180A0270B2FB62F692356276B2F20273A273A
S11301904F25F52E582F8F2DF72E762F6F2D932761
S11301A054276227B72F782367277B2F7927B62F09
S11301B0672B56276B2F85279627B52F572365273F
S11301C05B2FB92F982379279B2F4095B42F422B6F
S11301D034274B2FB42F432B24274B2FB32F3223F9
S11301E043273B2F1A951030E05109F079CF019045
S11301F02025019030250190402501905025019043
S11302006025019070250190802501909025BF9173
S1130210AF91299339934993599369937993899326
S11302209993DF91CF911F910F91FF900895FF92C1
S11302300F931F93CF93DF93EC01DB01FA012D9110
S11302403D914D915D916D917D918D919D91AF9376
S1130250BF9310E0019020250190302501904025A6
S11302600190502501906025019070250190802512
S113027001909025F92E982379279F2DF52E572349
S113028065275F2D96278527F62E672B56276F2D1A
S11302907927F72E782367277F2DF32E32234327E0
S11302A03F2DF42E432B24274F2DF42E422B34279D
S11302B04F2D4095932754276227F92E052FA62FFB
S11302C0BF2DF7228F25FB2EF826BA2FA02B8A27C5
S11302D0AB2F0727B82F8A2B78278B2FB02F0F210E
S11302E0A0270B2F4F253A27F32E2027322F292F13
S11302F09F2D052F582F802FA62F672F7A2F30FB85
S1130300379537F98894441F411D441F411D441FEC
S1130310411D441F411D8894551F511D551F511DDA
S1130320551F511D60FB679567F960FB679567F979
S113033070FB779577F970FB779577F970FB779574
S113034077F98894881F811D8894991F911D991F9E
S1130350911D0190202501903025019040250190A8
S11303605025019060250190702501908025019011
S1130370902513951D300CF47DCFBF91AF91299337
S11303803993499359936993799389939993DF9115
S1130390CF911F910F91FF900895FC01DB0120E0A4
S11303A06D917D918D919D9162276193719381935C
S11303B091936D917D918D919D91619371938193B1
S11303C0919323956D917D918D919D916227619378
S11303D07193819391936D917D918D919D91619391
S11303E07193819391932395A0512C310CF4D8CF20
S11303F00895FF920F931F93CF93DF93EC01DB01DA
S1130400FA012D913D914D915D916D917D918D916B
S11304109D91AF93BF93E85711E10190202501907E
S113042030250190402501905025019060250190D0
S1130430702501908025019090258894331F311DEB
S11304408894441F411D441F411D441F411D441FE6
S1130450411D889450FB579557F950FB579557F910
S113046050FB579557F98894661F611D661F611DDF
S11304708894771F711D771F711D771F711D8894D4
S113048080FB879587F9889490FB979597F990FB63
S1130490979597F9F92E922F232F3F2DF92E082F98
S11304A0A72FB52F5A2B65275B2FBA2FA02B5A27BE
S11304B0AB2F0627F526B02F0F21A0270B2FB62F21
S11304C0692356276B2F20273A274F25F52E582FBF
S11304D08F2DF72E762F6F2D932754276227B72F52
S11304E0782367277B2F7927B62F672B56276B2F07
S11304F085279627B52F572365275B2FB92F982378
S113050079279B2F4095B42F422B34274B2FB42FA0
S1130510432B24274B2FB32F322343273B2F1A95EA
S11305201030E05109F079CF019020250190302559
S1130530019040250190502501906025019070257F
S11305400190802501909025BF91AF912993399313
S1130550499359936993799389939993DF91CF91AF
S11305601F910F91FF900895FF920F931F93CF93C4
S1130570DF93EC01DB01FA012D913D914D915D91E9
S11305806D917D918D919D91AF93BF9310E00190FA
S1130590202501903025019040250190502501909F
S11305A06025019070250190802501909025F92EF9
S11305B0982379279F2DF52E572365275F2D96279E
S11305C08527F62E672B56276F2D7927F72E78234C
S11305D067277F2DF32E322343273F2DF42E432B01
S11305E024274F2DF42E422B34274F2D409593274B
S11305F054276227F92E052FA62FBF2DF7228F250A
S1130600FB2EF826BA2FA02B8A27AB2F0727B82F4B
S11306108A2B78278B2FB02F0F21A0270B2F4F2544
S11306203A27F32E2027322F292F9F2D052F582FBD
S1130630802FA62F672F7A2F30FB379537F98894B0
S1130640441F411D441F411D441F411D441F411DA2
S11306508894551F511D551F511D551F511D60FB79
S1130660679567F960FB679567F970FB779577F98C
S113067070FB779577F970FB779577F98894881FE5
S1130680811D8894991F911D991F911D019020250A
S1130690019030250190402501905025019060255E
S11306A001907025019080250190902513951131BA
S11306B00CF47DCFBF91AF9129933993499359930A
S11306C06993799389939993DF91CF911F910F91B6
S11306D0FF900895FC01DB0120E06D917D918D91E7
S11306E09D91622761937193819391936D917D9113
S11306F08D919D91619371938193919323956D91C4
S11307007D918D919D9162276193719381939193D2
S11307106D917D918D919D9161937193819391934D
S113072023956D917D918D919D9162276193719334
S1130730819391936D917D918D919D91619371932D
S11307408193919323956D917D918D919D916227D4
S113075061937193819391936D917D918D919D910D
S113076061937193819391932395A05222320CF457
S1130770B4CF0895EF92FF920F931F93CF93DF931B
S1130780CDB7DEB7A1970FB6F894DEBF0FBECDBFCD
S113079080E1E0E0F1E0DE01119601900D928A958E
S11307A0E1F789E08E010F5E1F4FF801982F119237
S11307B09A95E9F796E2998B97E29B8B9EE19C8B45
S11307C096EF9D8B92E59E8B95E89F8B888F7E019B
S11307D0EAE1EE0EF11C88E0F70111928A95E9F73F
S11307E0BE016F5F7F4F80E491E0D7DD40E451E0CC
S11307F0B801C7011CDD40E451E0B701C8015CDC6D
S1130800A1960FB6F894DEBF0FBECDBFDF91CF9196
S11308101F910F91FF90EF900895CF93DF93CDB781
S1130820DEB7E0970FB6F894DEBF0FBECDBF80E20F
S1130830E0E1F1E0DE01119601900D928A95E1F775
S113084088E0E0E3F1E0DE01999601900D928A954B
S1130850E1F788E0E8E3F1E0DE01919601900D9282
S11308608A95E1F7BE016F5F7F4F80E491E032DF4C
S113087040E451E0BE01675D7F4FCE01819674DE96
S113088040E451E0BE016F5D7F4FCE018996B1DD3A
S1130890E0960FB6F894DEBF0FBECDBFDF91CF91C7
S11308A0089568DFBADF80E090E00895F894FFCF00
S11308B09722152EAD201D7ED2289477DD16C46DA7
S11308C09722152EAD201D7ED2289477DD16C46D97
S11308D03356D1260612A754B56DA976A43A9A00C8
S11308E02600271EF6528509893852B66FAE6D81EF
S10408F00003
S9030000FC
